:100000000C9480000C949F000C949F000C949F0013
:100010000C949F000C949F000C949F000C949F00E4
:100020000C949F000C949F000C949F000C949F00D4
:100030000C949F000C949F000C949F000C949F00C4
:100040000C949F000C949F000C949F000C949F00B4
:100050000C949F000C949F000C949F000C949F00A4
:100060000C949F000C949F000C949F000C949F0094
:100070000C949F000C949F000C949F000C949F0084
:100080000C949F000C949F000C949F000C949F0074
:100090000C949F000C949F000C949F000C949F0064
:1000A0000C949F000C949F000C949F000C949F0054
:1000B0000C949F000C949F000C949F000C949F0044
:1000C0000C949F000C949F000C949F000C949F0034
:1000D0000C949F000C949F000C949F000C949F0024
:1000E0000C949F000C949F000C949F000C949F0014
:1000F0000C949F000C949F000C949F000C949F0004
:1001000011241FBECFEFCDBFDFE7DEBF10E4A0E0BC
:10011000B0E4ECE2F8E000E00BBF02C007900D9203
:10012000AC31B107D9F720E4ACE1B0E401C01D92D5
:10013000A235B207E1F70E9477010C9414040C94E5
:1001400000009DE994BF8093001008950F931F93C2
:10015000CF93DF93EC018B018091021081FDFCCFE6
:1001600083E10E94A100DC5E0883198380E00E9485
:10017000A100DF91CF911F910F910895209102105E
:100180000E94070408956150710920E030E00EC01C
:10019000DC01A20FB31F4C91FC01E60FF71F508149
:1001A0005C9340832F5F3F4F6150710926173707DB
:1001B0007CF30895CF92DF92EF92FF920F931F93FB
:1001C000CF93DF938A016901C0E0D0E011C07801CC
:1001D000EC0EFD1E2AE030E040E050E00E94C60335
:1001E000605DF7016083622F732F842F952F219616
:1001F000611571058105910551F706C0F801EC0FF5
:10020000FD1F80E380832196CC15DD05BCF3BE0184
:10021000C8010E94C300F801EC0FFD1F1082CE013F
:10022000DF91CF911F910F91FF90EF90DF90CF90D2
:100230000895E0E4F4E020812D7F20832081216077
:100240002083BC0180E090E00E94CB0220E030E0FF
:1002500040E851E40E9459039B01AC0160E074E264
:1002600084E79DE40E942A0220E030E040E05FE362
:100270000E94BE010E949C02E0E2F8E06087718764
:100280008681806C868308959091240895FFFCCF29
:100290008093220808950F931F93CF93DF938C01CF
:1002A000C0E0D0E007C0F801EC0FFD1F80810E9484
:1002B00044012196F80101900020E9F73197E01BF5
:1002C000F10BCE17DF0778F38AE00E944401DF913B
:1002D000CF911F910F91089520E030E040E250E46B
:1002E0000E94DA0080E290E40E944B010895789425
:1002F00080E895E20E94190183E10E94A10064E177
:1003000070E086E090E00E94A6006EE170E080E080
:1003100090E00E94A60086E090E00E94BE008093DC
:100320001C4090931D4080E090E00E94BE008093AE
:100330001E4090931F4080E090E40E944B0160912A
:100340001E4070911F4080E090E00E946C018DE0A3
:1003500090E40E944B0160911C4070911D4080E030
:1003600090E00E946C012FEF84E39CE021508040DC
:100370009040E1F700C00000DECF5058BB27AA270D
:100380000E94D5010C941F030E94110338F00E94B3
:10039000180320F039F49F3F19F426F40C940E034F
:1003A0000EF4E095E7FB0C940803E92F0E9430035C
:1003B00058F3BA17620773078407950720F079F49A
:1003C000A6F50C9452030EF4E0950B2EBA2FA02D37
:1003D0000B01B90190010C01CA01A0011124FF27F2
:1003E000591B99F0593F50F4503E68F11A16F040ED
:1003F000A22F232F342F4427585FF3CF46953795EC
:100400002795A795F0405395C9F77EF41F16BA0BB0
:10041000620B730B840BBAF09150A1F0FF0FBB1F5E
:10042000661F771F881FC2F70EC0BA0F621F731FA7
:10043000841F48F4879577956795B795F7959E3F04
:1004400008F0B0CF9395880F08F09927EE0F979595
:10045000879508950E943E020C941F030E94180382
:1004600058F00E94110340F029F45F3F29F00C94EA
:10047000080351110C9453030C940E030E94300393
:1004800068F39923B1F3552391F3951B550BBB27C3
:10049000AA2762177307840738F09F5F5F4F220F08
:1004A000331F441FAA1FA9F335D00E2E3AF0E0E8FF
:1004B00032D091505040E695001CCAF72BD0FE2F49
:1004C00029D0660F771F881FBB1F261737074807DD
:1004D000AB07B0E809F0BB0B802DBF01FF27935895
:1004E0005F4F3AF09E3F510578F00C9408030C944E
:1004F00053035F3FE4F3983ED4F386957795679571
:10050000B795F7959F5FC9F7880F911D96958795C9
:1005100097F90895E1E0660F771F881FBB1F6217E8
:1005200073078407BA0720F0621B730B840BBA0BA6
:10053000EE1F88F7E09508950E94380388F09F57D2
:1005400098F0B92F9927B751B0F0E1F0660F771FF7
:10055000881F991F1AF0BA95C9F714C0B13091F0ED
:100560000E945203B1E008950C945203672F782F34
:100570008827B85F39F0B93FCCF3869577956795B2
:10058000B395D9F73EF490958095709561957F4F1E
:100590008F4F9F4F0895E89409C097FB3EF49095C4
:1005A0008095709561957F4F8F4F9F4F9923A9F04C
:1005B000F92F96E9BB279395F695879577956795DB
:1005C000B795F111F8CFFAF4BB0F11F460FF1BC01F
:1005D0006F5F7F4F8F4F9F4F16C0882311F096E9B2
:1005E00011C0772321F09EE8872F762F05C0662360
:1005F00071F096E8862F70E060E02AF09A95660F19
:10060000771F881FDAF7880F9695879597F90895D1
:1006100097F99F6780E870E060E008959FEF80ECB5
:10062000089500240A941616170618060906089558
:1006300000240A9412161306140605060895092EBE
:100640000394000C11F4882352F0BB0F40F4BF2B2D
:1006500011F460FF04C06F5F7F4F8F4F9F4F08956D
:1006600057FD9058440F551F59F05F3F71F0479563
:10067000880F97FB991F61F09F3F79F08795089548
:10068000121613061406551FF2CF4695F1DF08C067
:10069000161617061806991FF1CF86957105610584
:1006A00008940895E894BB2766277727CB0197F92C
:1006B00008950E946C030C941F030E94110338F0EC
:1006C0000E94180320F0952311F00C9408030C9459
:1006D0000E0311240C9453030E94300370F3959F72
:1006E000C1F3950F50E0551F629FF001729FBB2729
:1006F000F00DB11D639FAA27F00DB11DAA1F649FC5
:100700006627B00DA11D661F829F2227B00DA11D77
:10071000621F739FB00DA11D621F839FA00D611DFD
:10072000221F749F3327A00D611D231F849F600D1E
:10073000211D822F762F6A2F11249F5750409AF047
:10074000F1F088234AF0EE0FFF1FBB1F661F771FD3
:10075000881F91505040A9F79E3F510580F00C949E
:1007600008030C9453035F3FE4F3983ED4F386955B
:1007700077956795B795F795E7959F5FC1F7FE2B3E
:10078000880F911D9695879597F90895052E97FBEB
:100790001EF400940E94DD0357FD07D00E94E5037C
:1007A00007FC03D04EF40C94DD0350954095309532
:1007B00021953F4F4F4F5F4F0895909580957095CD
:1007C00061957F4F8F4F9F4F0895A1E21A2EAA1B6C
:1007D000BB1BFD010DC0AA1FBB1FEE1FFF1FA217F1
:1007E000B307E407F50720F0A21BB30BE40BF50BEE
:1007F000661F771F881F991F1A9469F76095709577
:10080000809590959B01AC01BD01CF0108950E9498
:10081000100480819181089503D0808199270895E3
:0C082000FC01E050FC4E0895F894FFCF5E
:10082C006D6F64655F6164647265737300444154F9
:0C083C00415F616464726573732000000A
:00000001FF
